:020000040800F2
:1000000000000820CD20000855060008570600080B
:10001000590600085B0600085D06000800000000A5
:100020000000000000000000000000005F06000863
:10003000610600080000000063060008650600086D
:100040001D2100081D2100081D2100081D21000898
:100050001D2100081D2100081D2100081D21000888
:100060001D2100081D2100081D2100081D21000878
:100070001D2100081D2100081D2100081D21000868
:100080001D2100081D2100081D2100081D21000858
:100090001D2100081D2100081D2100081D21000848
:1000A0001D2100081D2100081D2100081D21000838
:1000B0001D2100081D2100081D2100081D21000828
:1000C0001D2100081D2100081D2100081D21000818
:1000D0001D2100081D2100081D2100081D21000808
:1000E0001D2100081D2100081D2100081D210008F8
:1000F0001D2100081D2100081D2100081D210008E8
:100100001D2100081D2100081D2100081D210008D7
:100110001D2100081D2100081D2100081D210008C7
:100120001D2100081D2100081D2100081D210008B7
:100130001D2100081D2100081D2100081D210008A7
:100140001D2100081D2100081D2100081D21000897
:100150001D2100081D2100081D2100081D21000887
:100160001D2100081D2100081D2100081D21000877
:100170001D2100081D2100081D21000800000000AD
:100180001D2100081D2100081D2100081D21000857
:100190001D2100081D2100081D2100081D21000847
:1001A0001D2100081D2100081D2100081D21000837
:1001B0001D2100081D2100081D2100081D21000827
:1001C0001D2100081D210008000000001D2100085D
:1001D0001D2100081D2100081D2100081D21000807
:1001E0001D2100081D2100081D2100081D210008F7
:0801F0001D2100081D2100087B
:1001F80053B94AB9002908BF00281CBF4FF0FF3186
:100208004FF0FF3000F00CB8ADF1080C6DE904CEEA
:1002180001F0AEFFDDF804E0DDE9022304B0704729
:10022800704700BF0348044B834202D0034B03B11D
:10023800184770470C0000200C0000200000000048
:1002480005480649091A891001EBD171491002D0F5
:10025800034B03B1184770470C0000200C00002026
:100268000000000010B5064C237843B9FFF7DAFF09
:10027800044B13B10448AFF300800123237010BD71
:100288000C000020000000004824000808B5054BB9
:100298001BB105490548AFF30080BDE80840FFF7EA
:1002A800CFBF00BF00000000100000204824000855
:1002B8002DE9F0438DB000240794089409940A941A
:1002C8000B94574B1A6B42F010021A631A6B02F028
:1002D80010020192019A1A6B42F004021A631A6B17
:1002E80002F004020292029A1A6B42F020021A6388
:1002F8001A6B02F020020392039A1A6B42F08002F2
:100308001A631A6B02F080020492049A1A6B42F084
:1003180001021A631A6B02F001020592059A1A6B20
:1003280042F002021A631B6B03F002030693069B5A
:10033800DFF8FC9022461021484601F01FFBDFF849
:10034800F48022460121404601F018FB354E224632
:100358004FF48071304601F011FB0D2307930325FC
:1003680008950994304F07A9384601F019FA122365
:1003780007930894099407A9384601F011FA40F246
:10038800FF7307930895099407A9284801F008FA0C
:10039800102307930127089709940A9407A9484648
:1003A80001F0FEF94FF4787307930895099407A9AB
:1003B800484601F0F5F90797089709940A9407A9A0
:1003C800404601F0EDF940F6466307930895099415
:1003D80007A9404601F0E4F94FF4807307930897A2
:1003E80009940A9407A9304601F0DAF94FF400732A
:1003F80007930894099407A9304601F0D1F94FF4FE
:10040800E05307930223089309940A950A230B9350
:1004180007A9304601F0C4F90DB0BDE8F08300BF6C
:100428000038024000000240001002400014024060
:10043800000802400004024038B50D4C0D4B236003
:100448000D4B63600025A5600123E36025616561AC
:10045800A561E5612562204600F080FA294620461C
:1004680000F0DAFA2946204600F007FB38BD00BF45
:10047800D8000020005400400E09002038B50D4C6B
:100488000D4B23600D4B63600025A5600123E360DD
:1004980025616561A561E5612562204600F05EFA87
:1004A8002946204600F0B8FA2946204600F0E5FA29
:1004B80038BD00BF28000020006000400E09002061
:1004C80008B50E480E4B03604FF482734360002357
:1004D80083604FF44072C260036143614FF480222D
:1004E8008261C3610362436283620722C26203635B
:1004F8000823436301F094FA08BD00BF740000208C
:100508000038004008B50948094B03604FF4E1334F
:10051800436000238360C36003610C2242618361EE
:10052800C3610362436201F08EFD08BD240100200F
:100538000010014008B50A480A4B03604FF4E13344
:10054800436000238360C36003610C2242614FF45F
:1005580040728261C3610362436201F074FD08BDA9
:10056800A40100200044004010B5B8B03422002196
:100578002BA801F0F5FD00242694279428942994AB
:100588002A949022214602A801F0EAFD01F0FCF924
:10059800224B1A6C42F080521A641B6C03F0805391
:1005A8000093009B1E4A136823F4404343F480439E
:1005B8001360136803F440430193019B03232B93B7
:1005C8004FF480332C9301232E9310232F9302236F
:1005D80031934FF48002329208223392602234928F
:1005E8003593042336932BA800F076FA0F2326932D
:1005F800279428944FF4805329932A94214626A8B7
:1006080000F0F0FC074B0293139414941B941E946F
:10061800219402A800F0C2FD38B010BD0038024095
:1006280000700040C040220008B501F0DBF9FFF778
:100638009BFFFFF73DFEFFF7FFFEFFF71FFFFFF7EA
:100648003FFFFFF75FFFFFF775FFFEE77047FEE725
:10065800FEE7FEE7FEE770477047704708B501F010
:10066800CDF908BD82B00A4B1A6C42F080521A6468
:100678001A6C02F080520092009A5A6C42F480423E
:100688005A645B6C03F480430193019B02B070478A
:100698000038024010B58AB00023059306930793EB
:1006A800089309930368274A934204D0264A934241
:1006B80024D00AB010BD254C236B43F002032363FA
:1006C800236B03F002030193019B4FF4C07305935E
:1006D8001223069301230793032308930423099302
:1006E80005A91B4801F05CF8236C43F4001323644C
:1006F800236C03F400130293029BDAE7134C236B79
:1007080043F020032363236B03F020030393039B2D
:100718004FF44043059312230693012307930323C1
:1007280008930423099305A90A4801F039F8236CB2
:1007380043F080732364236C03F080730493049B59
:10074800B7E700BF00540040006000400038024096
:10075800000402400014024070B588B000230393DF
:10076800049305930693079302681D4B9A4201D0A0
:1007780008B070BD03F500331A6C42F480421A6465
:100788001A6C02F480420092009A1A6B42F004023A
:100798001A631A6B02F004020192019A1A6B42F072
:1007A80002021A631B6B03F002030293029B0623E7
:1007B800039302260496032506950524079403A9A6
:1007C800084800F0EDFF4FF44053039304960023CC
:1007D80005930695079403A9034800F0E1FFC7E7CE
:1007E80000380040000802400004024000B58BB009
:1007F8000023059306930793089309930368254AF2
:10080800934205D0244A934223D00BB05DF804FBF1
:10081800224B5A6C42F010025A645A6C02F01002D1
:100828000192019A1A6B42F002021A631B6B03F0E1
:1008380002030293029B4FF440430593022306935D
:10084800032308930423099305A9154800F0A8FF7A
:10085800DBE7124B1A6C42F400321A641A6C02F489
:1008680000320392039A1A6B42F001021A631B6B5F
:1008780003F001030493049B0F23059302230693BB
:10088800032308930723099305A9064800F088FF66
:10089800BBE700BF001001400044004000380240A0
:1008A80000040240000002400649CB6823F4E063DC
:1008B8001B041B0C000200F4E0600343024A1A43C5
:1008C800CA60704700ED00E00000FA0530B4154B2F
:1008D800DB68C3F30223C3F10704042C28BF0424F4
:1008E8001D1D062D01D9033B00E000234FF0FF3505
:1008F80005FA04F421EA0401994005FA03F322EA0F
:1009080003031943002805DB0901C9B2064B195432
:1009180030BC704700F00F000901C9B2034B1954ED
:10092800F6E700BF00ED00E000E400E014ED00E0B1
:100938000138B0F1807F0AD2064B5860064AF02190
:1009480082F823100020986007221A60704701205F
:10095800704700BF10E000E000ED00E0002857D02D
:1009680010B5044690F84130002B41D0242384F878
:1009780041302268136823F001031360636822681A
:1009880023F0706313612268936823F40043936033
:10099800E368012B31D0A368226843F404439360D1
:1009A800E368022B2FD0226851681A4B0B4353601F
:1009B8002268D36823F40043D36023696269134330
:1009C800A169226843EA0123D360E369216A2268A6
:1009D8000B4313602268136843F00103136000207F
:1009E8006064202384F84130206384F8420010BDFD
:1009F80080F84030FFF74EFEB8E7A368226843F45A
:100A080000439360CCE723684FF400625A60CAE75A
:100A1800012070470080000290F84130DBB2202BA3
:100A280027D190F84030012B25D010B4012380F84D
:100A38004030242380F841300468226822F0010203
:100A480022600468226822F48052226002681368D7
:100A58000B4313600268136843F0010313602023FB
:100A680080F84130002380F8403018465DF8044B88
:100A78007047022070470220704790F84130DBB27F
:100A8800202B25D190F84030012B23D010B401231E
:100A980080F84030242380F841300468226822F02E
:100AA800010222600268136823F4706343EA012399
:100AB80013600268136843F001031360202380F871
:100AC8004130002380F8403018465DF8044B7047E9
:100AD8000220704702207047002800F0068270B597
:100AE80082B00446036813F0010F29D0A74B9B6816
:100AF80003F00C03042B1AD0A44B9B6803F00C03DF
:100B0800082B0FD06368B3F5803F40D0002B54D139
:100B18009E4B1A6822F480321A601A6822F48022E6
:100B28001A6039E0994B5B6813F4800FEAD0974B51
:100B38001B6813F4003F03D06368002B00F0D781D3
:100B4800236813F0020F74D0904B9B6813F00C0FBE
:100B58005ED08E4B9B6803F00C03082B53D0E368E0
:100B6800002B00F08980894A136843F00103136061
:100B780000F050FF0546854B1B6813F0020F72D139
:100B880000F048FF401B0228F5D90320B4E17F4A52
:100B9800136843F48033136063682BB300F03AFFA3
:100BA80005467A4B1B6813F4003FC9D100F032FFA9
:100BB800401B6428F5D903209EE1B3F5A02F09D086
:100BC800724B1A6822F480321A601A6822F4802262
:100BD8001A60E1E76D4B1A6842F480221A601A68BD
:100BE80042F480321A60D7E700F014FF0546674BDD
:100BF8001B6813F4003FA3D000F00CFF401B6428CF
:100C0800F5D9032078E1614B5B6813F4800FA6D116
:100C18005E4B1B6813F0020F03D0E368012B40F012
:100C280068815A4A136823F0F803216943EAC1032B
:100C38001360236813F0080F46D0636983B3534ADF
:100C4800536F43F00103536700F0E4FE05464F4B32
:100C58005B6F13F0020F37D100F0DCFE401B022857
:100C6800F5D9032048E1494A136823F0F8032169BC
:100C780043EAC1031360DCE7444A136823F0010325
:100C8800136000F0C7FE0546404B1B6813F0020FC7
:100C9800CFD000F0BFFE401B0228F5D903202BE17E
:100CA8003A4A536F23F00103536700F0B3FE054639
:100CB800364B5B6F13F0020F06D000F0ABFE401B03
:100CC8000228F5D9032017E1236813F0040F7DD01B
:100CD8002E4B1B6C13F0805F1ED12C4B1A6C42F00C
:100CE80080521A641B6C03F080530193019B012509
:100CF800274B1B6813F4807F10D0A368012B21D0E9
:100D0800002B37D1214B1A6F22F001021A671A6F94
:100D180022F004021A671AE00025E9E71C4A136862
:100D280043F48073136000F075FE0646184B1B6889
:100D380013F4807FE1D100F06DFE801B6428F5D9A3
:100D48000320D9E0114A136F43F001031367A36826
:100D580053B300F05FFE06460C4B1B6F13F0020FF7
:100D680033D100F057FE801B41F288339842F3D903
:100D78000320C1E0052B0DD0044B1A6F22F00102AD
:100D88001A671A6F22F004021A67E0E70038024077
:100D980000700040604B1A6F42F004021A671A6F25
:100DA80042F001021A67D2E700F034FE06465A4BB9
:100DB8001B6F13F0020F08D000F02CFE801B41F2CD
:100DC80088339842F3D9032096E0FDB9A369002B34
:100DD80000F09180504A926802F00C02082A59D01B
:100DE800022B19D04C4A136823F08073136000F06B
:100DF80011FE0446484B1B6813F0007F48D000F0F2
:100E080009FE001B0228F5D9032075E0424A136C3D
:100E180023F080531364D9E73F4A136823F08073A3
:100E2800136000F0F7FD05463B4B1B6813F0007F8D
:100E380006D000F0EFFD401B0228F5D903205BE047
:100E4800E369226A1343626A43EA8213A26A520878
:100E5800013A43EA0243E26A43EA0263226B43EA45
:100E680002732D4A5360136843F08073136000F0D7
:100E7800D1FD0446284B1B6813F0007F06D100F013
:100E8800C9FD001B0228F5D9032035E0002033E016
:100E9800002031E0204A5268012B2FD002F4800351
:100EA800E1698B422CD102F03F03216A8B4229D1A0
:100EB800616A47F6C0731340B3EB811F24D102F473
:100EC8004031A36A5B08013BB1EB034F1ED102F02E
:100ED8007063E16AB3EB016F1AD102F0E042236B51
:100EE800B2EB037F16D1002006E0012070470120F5
:100EF80002E0012000E0002002B070BD0120FBE705
:100F08000120F9E70120F7E70120F5E70120F3E7E1
:100F18000120F1E70120EFE7003802402F4B9B68E2
:100F280003F00C03082B01D02D48704770B52B4BEC
:100F38005A6802F03F025B6813F4800F2AD0274BEF
:100F48005868C0F388100546002643011B1A66EB53
:100F58000604A10141EA93619801C01A61EB0401FA
:100F6800CB0043EA5073C4001946601946EB0101EF
:100F78008B0243EA90538402204619463346FFF712
:100F880037F9164B5B68C3F3014301335B00B0FBD1
:100F9800F3F070BD114B5868C0F388100546002661
:100FA80043011B1A66EB0604A10141EA936198010B
:100FB800C01A61EB0401CB0043EA5073C400194620
:100FC800601946EB01018B0243EA905384022046E4
:100FD80019463346FFF70CF9D3E700BF0038024043
:100FE8000024F400002800F0A08070B50446534B9C
:100FF8001B6803F00F038B420BD2504A136823F08F
:101008000F030B431360136803F00F038B4240F088
:101018008E80236813F0020F17D013F0040F04D04A
:10102800474A936843F4E0539360236813F0080F2A
:1010380004D0434A936843F460439360404A9368FA
:1010480023F0F003A068034393600D46236813F070
:10105800010F31D06368012B20D0022B25D0384AEC
:10106800126812F0020F64D035498A6822F0030230
:1010780013438B6000F0CEFC0646314B9B6803F0AF
:101088000C036268B3EB820F16D000F0C3FC801B20
:1010980041F288339842F0D9032045E0284A126883
:1010A80012F4003FE0D101203EE0254A126812F018
:1010B800007FD9D1012037E0204B1B6803F00F03D4
:1010C800AB420AD91D4A136823F00F032B43136060
:1010D800136803F00F03AB422DD1236813F0040FFC
:1010E80006D0174A936823F4E053E1680B439360F2
:1010F800236813F0080F07D0114A936823F460435C
:10110800216943EAC1039360FFF708FF0C4B9B6812
:10111800C3F303130B4AD35CD8400B4B18600B4B3B
:10112800186800F039FC002070BD012070470120CC
:10113800FAE70120F8E70120F6E700BF003C02408B
:101148000038024060240008080000200400002045
:10115800014B1868704700BF0800002008B5FFF76A
:10116800F7FF044B9B68C3F38223034AD35CD84040
:1011780008BD00BF003802407024000808B5FFF71A
:10118800E7FF044B9B68C3F34233034AD35CD84060
:1011980008BD00BF0038024070240008F0B583B0D5
:1011A8000446036813F0010F0CD0B54B9A6822F47B
:1011B80000029A609A68416B0A439A60436BC3B114
:1011C800002700E00027236813F4002F15D0AC4A4D
:1011D800D2F88C3023F44013E16B0B43C2F88C3007
:1011E800E36BB3F5801F06D0002B00F04581002586
:1011F80004E00127E7E70127F6E70025236813F451
:10120800801F0FD09E4AD2F88C3023F44003216C03
:101218000B43C2F88C30236CB3F5800F00F02E819D
:1012280003B90125236813F0807F00D0012713F04C
:10123800200F40F02781236813F0100F0CD0904B3B
:10124800D3F88C2022F08072C3F88C20D3F88C203D
:10125800A16B0A43C3F88C20236813F4804F08D08D
:10126800874AD2F8903023F44033616E0B43C2F8BA
:101278009030236813F4004F08D0814AD2F8903098
:1012880023F44023A16E0B43C2F89030236813F473
:10129800803F08D07A4AD2F8903023F44013E16EA8
:1012A8000B43C2F89030236813F4003F08D0744A07
:1012B800D2F8903023F44003216F0B43C2F89030EA
:1012C800236813F0400F08D06D4AD2F8903023F00D
:1012D8000303616C0B43C2F89030236813F0800F4E
:1012E80008D0674AD2F8903023F00C03A16C0B4366
:1012F800C2F89030236813F4807F08D0604AD2F88F
:10130800903023F03003E16C0B43C2F8903023682F
:1013180013F4007F08D05A4AD2F8903023F0C00363
:10132800216D0B43C2F89030236813F4806F08D006
:10133800534AD2F8903023F44073616D0B43C2F8DE
:101348009030236813F4006F08D04D4AD2F89030DB
:1013580023F44063A16D0B43C2F89030236813F463
:10136800805F08D0464AD2F8903023F44053E16DAC
:101378000B43C2F89030236813F4005F08D0404A4A
:10138800D2F8903023F44043216E0B43C2F89030DA
:10139800236813F4800F08D0394AD2F8903023F02C
:1013A8008063A16F0B43C2F89030236813F4001FC9
:1013B8000DD0334AD2F8903023F00063E16F0B432D
:1013C800C2F89030E36FB3F1006F00F0C18023687A
:1013D80013F0080F00D0012513F4802F08D0284AF5
:1013E800D2F8903023F04073616F0B43C2F890300D
:1013F800236813F4000F09D0214AD2F8903023F063
:101408008053D4F880100B43C2F89030236813F04F
:10141800806F09D01A4AD2F8903023F00053D4F8DC
:1014280084100B43C2F89030236813F0006F09D082
:10143800134AD2F88C3023F00073D4F888100B4389
:10144800C2F88C30236813F0805F09D00C4AD2F8B8
:101458008C3023F08063D4F88C100B43C2F88C30A6
:10146800002F77D12368B3F1007F73D0002D40F0AF
:101478000481002003B0F0BD0125BFE60127CFE6B7
:1014880000380240B74B1A6C42F080521A641B6C49
:1014980003F080530193019BB34A136843F48073AC
:1014A800136000F0B7FA0646AF4B1B6813F4807F51
:1014B80006D100F0AFFA801B6428F5D90320D9E7DC
:1014C800A84B1B6F13F4407315D0226B02F44072C3
:1014D8009A4210D0A34B1A6F22F44072196F41F44C
:1014E80080311967196F21F4803119671A671B6FEA
:1014F80013F0010F12D1236B03F44072B2F5407F51
:101508001DD0984A936823F4F813936095490B6F9C
:10151800226BC2F30B0213430B678CE600F07AFAD6
:101528000646904B1B6F13F0020FE4D100F072FADD
:10153800801B41F288339842F3D903209AE78948FF
:10154800826822F4F812894919400A438260DDE76B
:1015580001253CE7834A136823F08063136000F099
:1015680059FA06467F4B1B6813F0006F06D000F04F
:1015780051FA801B6428F5D903207BE7236813F010
:10158800010F13D0636B8BB9764AD2F88430D2F846
:101598008410606803F4403343EA801301F07061FB
:1015A8000B43A16843EA0173C2F88430236813F43B
:1015B800002F03D0E26BB2F5801F06D013F4801F12
:1015C8001ED0236CB3F5800F1AD1664AD2F8843046
:1015D800D2F88410606803F4403343EA8013E0686B
:1015E80043EA006301F0E0410B43C2F88430D2F8CB
:1015F8008C3023F01F03616A01390B43C2F88C3029
:10160800236813F0807F11D0564AD2F88400D2F8AC
:101618008410666823691B0443EA861300F070602F
:10162800034301F0E0410B43C2F88430236813F010
:10163800007F0DD0626823691B0443EA8213E268C5
:1016480043EA0263A26843EA0273464AC2F8843056
:10165800444A136843F08063136000F0DBF90646E0
:10166800404B1B6813F0006F7FF400AF00F0D2F915
:10167800801B6428F4D90320FCE63A4A136823F057
:101688008053136000F0C6F90546364B1B6813F00B
:10169800005F06D000F0BEF9401B6428F5D903208E
:1016A800E8E6236813F4002F01D0E26B22B113F4AB
:1016B800801F1DD0236CDBB92A4AD2F88830D2F8B3
:1016C8008810606903F4403343EA8013A06943EA51
:1016D800006301F0E0410B43C2F88830D2F88C3047
:1016E80023F4F853A16A013943EA0123C2F88C3084
:1016F800236813F4001F03D0E36FB3F1006F37D0F2
:10170800236813F0080F19D0164AD2F88810D2F8B7
:101718008830606903F4403343EA801301F0706154
:101728000B43E16943EA0173C2F88830D2F88C3080
:1017380023F44033E16A0B43C2F88C30094A13683A
:1017480043F08053136000F065F90446054B1B68AD
:1017580013F0005F1FD100F05DF9001B6428F5D974
:10176800032087E60038024000700040FFFCFF0FAE
:101778000A4AD2F88800D2F888106569236A1B04DF
:1017880043EA851300F07060034301F0E0410B4326
:10179800C2F88830B4E700206CE600BF0038024089
:1017A80000230F2B00F2E180F0B583B039E0092265
:1017B80000E00022B2403A4302346C4E46F824203E
:1017C8006B4A1468EA4302EA04064F6817F4803F3C
:1017D80001D045EA0406664C2660646802EA0406FD
:1017E8004F6817F4003F01D045EA0406604C666074
:1017F800A46802EA04064F6817F4801F01D045EA7E
:1018080004065B4CA660E46822404E6816F4001F8C
:1018180001D045EA0402564CE26001330F2B00F276
:10182800A28001229A400C6804EA0205AA42F4D177
:101838004C68661E112C18BF012E01D9122C12D12A
:1018480086685F000324BC4026EA0406CC68BC40D6
:1018580034438460466826EA02064C68C4F30012E2
:101868009A4032434260C2685F000326BE40F64396
:1018780032408C68BC401443C4604A68122A18BFBE
:10188800022A13D1DC08083450F824E003F00702D8
:101898004FEA820C0F2202FA0CF22EEA020E0A69B3
:1018A80002FA0CF242EA0E0240F8242002681640BE
:1018B8004A6802F00302BA40324302604A6812F0F2
:1018C800805FAAD02B4A546C44F480445464526C10
:1018D80002F480420192019A9C08A61C234A52F8FD
:1018E800267003F0030296000F22B24027EA02078F
:1018F800214A90423FF45DAF02F58062904222D0C7
:1019080002F58062904220D002F5806290421ED09B
:1019180002F5806290421CD002F5806290421AD093
:1019280002F58062904218D002F58062904216D08B
:1019380002F58062904214D002F5806290423FF432
:1019480036AF0A2236E7012234E7022232E70322C1
:1019580030E704222EE705222CE706222AE7072291
:1019680028E7082226E703B0F0BD70470038014099
:10197800003C014000380240000002400AB1816189
:101988007047090481617047024A136843F4807301
:10199800136070470070004010B504460E4B18786D
:1019A8004FF47A73B3FBF0F30C4A1068B0FBF3F012
:1019B800FEF7BEFF68B90F2C01D901200AE000220A
:1019C80021464FF0FF30FEF781FF054B1C600020D9
:1019D80000E0012010BD00BF00000020080000202A
:1019E8000400002008B50320FEF75EFF0020FFF783
:1019F800D3FFFEF737FE002008BD0000034A116838
:101A0800034B1B780B441360704700BF240200206F
:101A180000000020014B1868704700BF2402002016
:101A2800002858D010B504460023836290F85D3032
:101A3800002B45D0022384F85D302268136823F018
:101A480040031360E368B3F5E06F3ED90022B3F5B5
:101A5800706F18BFB3F5E06F01D00021A162216B50
:101A680021B9B3F5E06F33D9022323636368A16812
:101A78000B4321690B4361690B43A16901F40071B0
:101A88000B43E1690B43216A0B43A06A21680343B6
:101A98000B60638B03F00403616A0B43616B0B43B8
:101AA800E1680B43216813434B602268D36923F430
:101AB8000063D36100202066012384F85D3010BDE7
:101AC80080F85C30FEF748FEB4E74FF48052BEE77A
:101AD80001232363CAE701207047000010B50446BC
:101AE80083680269134342691343C2691343016857
:101AF80008689D4A024013430B602268536823F428
:101B08004053E1680B435360A269236A1A43216872
:101B18008B6823F4306313438B602368934A9342A2
:101B280019D0934A934229D0924A93423ED0924A7E
:101B3800934264D0914A934276D0914A934200F0FE
:101B48008B80904A934200F09F808F4A934200F026
:101B5800B38010233EE08D4BD3F8903003F003039D
:101B6800032B09D8DFE803F00204C006012331E0A3
:101B780004232FE008232DE010232BE0834BD3F818
:101B8800903003F00C030C2B0ED8DFE803F0070DA0
:101B98000D0D090D0D0DAF0D0D0D0B00002319E0F6
:101BA800042317E0082315E0102313E0774BD3F83C
:101BB800903003F03003102B00F09A8006D9202BC8
:101BC80000F09880302B18D1082303E00BB90023CC
:101BD80000E01023E269B2F5004F00F0A180082B65
:101BE80000F23C81DFE813F0FF0014011E013A0106
:101BF80027013A013A013A0131011023EAE7634B20
:101C0800D3F8903003F0C003402B75D005D9802B52
:101C180074D0C02B06D10823DCE70BB90023D9E721
:101C28001023D7E71023D5E7584BD3F8903003F4A7
:101C38004073B3F5807F63D007D9B3F5007F61D0D7
:101C4800B3F5407F06D10823C4E70BB90023C1E7E9
:101C58001023BFE71023BDE74C4BD3F8903003F4B3
:101C68004063B3F5806F4FD007D9B3F5006F4DD0FF
:101C7800B3F5406F06D10823ACE70BB90123A9E7F8
:101C88001023A7E71023A5E7404BD3F8903003F4BF
:101C98004053B3F5805F3BD007D9B3F5005F39D027
:101CA800B3F5405F06D1082394E70BB9002391E709
:101CB80010238FE710238DE7344BD3F8903003F4CB
:101CC8004043B3F5804F27D007D9B3F5004F25D04F
:101CD800B3F5404F06D108237CE70BB9002379E719
:101CE800102377E7102375E7022373E7022371E7D0
:101CF80004236FE702236DE704236BE7022369E7F8
:101D0800042367E7022365E7042363E7022361E707
:101D180004235FE702235DE704235BE7022359E717
:101D2800082B5DD8DFE803F005343F5C485C5C5C59
:101D38005300FFF713FA6268530803EB4003B3FB41
:101D4800F2F39BB20020A3F110014FF6EF7291421B
:101D580000F287809AB222F00F02C3F342031343C2
:101D68002268D36050E000BFF369FFEF0010014024
:101D78000044004000480040004C00400050004033
:101D88000014014000780040007C00400038024008
:101D9800FFF7F4F96268530803EB4003B3FBF2F36F
:101DA8009BB20020CFE76268304B03EB5203B3FBD2
:101DB800F2F39BB20020C6E7FFF7B0F86268530859
:101DC80003EB4003B3FBF2F39BB20020BBE762686E
:101DD800530803F58033B3FBF2F39BB20020B2E75C
:101DE80001200023AFE7FFF7B9F9626800EB52035F
:101DF800B3FBF2F39BB20020A3F110014FF6EF7290
:101E0800914230D82268D36000232366636610BDF0
:101E1800FFF7B4F9626800EB5203B3FBF2F39BB22D
:101E28000020E9E76268124B03EB5203B3FBF2F3BD
:101E38009BB20020E0E7FFF771F8626800EB5203FD
:101E4800B3FBF2F39BB20020D6E76268530803F5B0
:101E58000043B3FBF2F39BB20020CDE7012000233F
:101E6800CAE70120D0E70120CEE700BF0048E8011B
:101E78000024F400436A13F0010F06D00268536887
:101E880023F40033816A0B435360436A13F0020F53
:101E980006D00268536823F48033C16A0B43536049
:101EA800436A13F0040F06D00268536823F48023B2
:101EB800016B0B435360436A13F0080F06D00268A6
:101EC800536823F40043416B0B435360436A13F098
:101ED800100F06D00268936823F48053816B0B437C
:101EE8009360436A13F0200F06D00268936823F4C6
:101EF8000053C16B0B439360436A13F0400F0AD041
:101F08000268536823F48013016C0B435360036C1D
:101F1800B3F5801F0BD0436A13F0800F06D0026818
:101F2800536823F40023816C0B43536070470268A5
:101F3800536823F4C003416C0B435360EBE72DE96E
:101F4800F04104460F4616469846069D2368DB690D
:101F580037EA03030CBF01230023B3423AD1B5F19A
:101F6800FF3FF3D0FFF756FDA0EB0800A8421FD8AB
:101F7800F5B123681A6812F0040FE7D0DA6912F491
:101F8800006FE3D04FF400621A622268136823F4EA
:101F9800D07313602268936823F0010393602023B1
:101FA8006367A367E367002384F87030032012E0B7
:101FB8002268136823F4D07313602268936823F0AF
:101FC8000103936020236367A367002384F87030BC
:101FD800032000E00020BDE8F08130B583B004465E
:101FE8000023C367FFF716FD054623681B6813F037
:101FF800080F0CD123681B6813F0040F15D1202398
:102008006367A367002084F8700003B030BD6FF0E9
:102018007E430093034600224FF400112046FFF749
:102028008EFF0028E6D00320EFE76FF07E43009391
:102038002B4600224FF480012046FFF780FF00283E
:10204800DDD00320E1E768B310B50446436F03B35E
:10205800242363672268136823F001031360204672
:10206800FFF73CFD012813D0636ABBB922685368A7
:1020780023F4904353602268936823F02A03936003
:102088002268136843F0010313602046FFF7A5FF99
:1020980010BD80F87030FEF7A9FBD9E72046FFF79E
:1020A800E9FEE3E701207047054BD3F8882042F4A6
:1020B8007002C3F888204FF000629A60704700BF32
:1020C80000ED00E0DFF834D0002103E00C4B5B5852
:1020D800435004310B480C4B42189A42F6D30B4A32
:1020E80002E0002342F8043B094B9A42F9D3FFF778
:1020F800DBFF00F011F8FEF797FA704700000820A0
:1021080088240008000000200C0000200C0000209B
:1021180028020020FEE7000070B50D4D0D4C641B31
:10212800A4100026A64209D10B4D0C4C00F088F9EA
:10213800641BA4100026A64205D170BD55F8043BC7
:1021480098470136EEE755F8043B98470136F2E721
:1021580080240008802400088024000884240008C3
:1021680002440346934200D1704703F8011BF9E784
:102178002DE9F047089E04468846002B40F08580EC
:102188008A42154648D9B2FA82F24AB1C2F120070A
:1021980001FA02F320FA07F7954047EA030894404A
:1021A8004FEA154E230CB8FBFEF71FFA85FC0EFB11
:1021B800178843EA084307FB0CF1994209D9EB1841
:1021C80007F1FF3080F0E380994240F2E080023F5F
:1021D8002B445B1AA4B2B3FBFEF00EFB103344EAA7
:1021E800034400FB0CFCA44509D92C1900F1FF336A
:1021F80080F0CB80A44540F2C88002382C4440EAE5
:102208000740A4EB0C0400271EB1D4400023C6E904
:1022180000433946BDE8F087002A53D0B2FA82F26B
:10222800002A40F0B680491B4FEA154E1FFA85F880
:102238000127B1FBFEFC230C0EFB1C1143EA0143F2
:1022480008FB0CF1994207D9EB180CF1FF3002D2C8
:10225800994200F2EC808446591AA3B2B1FBFEF011
:102268000EFB101443EA044408FB00F8A04507D904
:102278002C1900F1FF3302D2A04500F2DC80184689
:10228800A4EB080440EA0C40BEE78B4208D9002EB4
:1022980078D00027C6E9000138463946BDE8F087FE
:1022A800B3FA83F77FB98B4202D3824200F2BD8032
:1022B800841A61EB030301209846002EA9D0C6E9D1
:1022C8000048A6E7FFDEC7F12005BB4022FA05FC5F
:1022D8004CEA030C01FA07F420FA05F821FA05F391
:1022E8004FEA1C4E48EA0404B3FBFEF9210C0EFB2E
:1022F80019331FFA8CF841EA034309FB08FA9A4597
:1023080002FA07F200FA07F10BD91CEB030309F1F3
:10231800FF3080F088809A4540F28580A9F1020953
:102328006344A3EB0A03A4B2B3FBFEF00EFB103325
:1023380044EA034400FB08F8A04508D91CEB040450
:1023480000F1FF336BD2A04569D90238644440EAF2
:102358000940A4EB0804A0FB02894C45C6464B463D
:1023680054D351D0002E69D0B1EB0E0264EB0304B4
:1023780004FA05F522FA07F3FC401D43C6E90054A8
:10238800002746E73746304643E7184637E707460B
:102398001FE7C2F1200320FA03F7954001FA02F083
:1023A80021FA03F34FEA154E3843010CB3FBFEF74D
:1023B8001FFA85F80EFB173341EA034107FB08F3C0
:1023C8008B4204FA02F407D9691807F1FF3C28D2B6
:1023D8008B4226D9023F2944CB1A81B2B3FBFEF0C7
:1023E8000EFB103341EA034100FB08F38B4207D987
:1023F800691800F1FF3C10D28B420ED902382944EB
:10240800C91A40EA074714E74145ABD2B8EB020EB8
:1024180069EB0C0201381346A4E76046F0E718465A
:1024280095E76746D8E781467BE7384645E7ACF14C
:10243800020C2B4410E702382C4421E73746E8E623
:10244800F8B500BFF8BC08BC9E467047F8B500BF99
:08245800F8BC08BC9E46704769
:102460000000000000000000010203040607080944
:0824700000000000010203045A
:0824780000FDFF7F01000000E0
:0424800095020008B9
:042484006D020008DD
:0C24880001000000100000000024F4001F
:04000005080020CD02
:00000001FF
